:020000040000FA
:100000000A128A11F92F00308A000408840A820734
:100010000034FC346034DA34F2346634B634BE343E
:06002000E034FE34F6346A
:100DD200031083120313881C03140030031801301C
:100DE200F22E0800031083120313081C03140030B0
:100DF20003180130FC2E080083160317890183169D
:100E0200031386018312031388018601FF308316C0
:100E1200031388000800F40010307402031C122F20
:100E2200132F162FF201F301252F7408013E8400BF
:100E32000A128A1103200A128A11F000F1017008C5
:100E4200F2007108F300252F720883120313860043
:100E520008000A128A11FD260A128A1100300A12AB
:100E62008A110C270A128A11F501F601382F0A128B
:100E72008A11F3260A128A11003A0319412F422FCE
:100E8200562F0130F5070318F60A0030F6074A2FED
:100E92004A2F0A128A11F3260A128A11003A031DF6
:100EA200532F542F4A2F562F562F0A128A11E926F2
:100EB2000A128A11003A03195F2F602FC42F0130E2
:100EC200F5020030031CF603F602682F682F0A129F
:100ED2008A11E9260A128A11003A031D712F722F14
:100EE200682FC42FC42FC42F0930F5000030F6003C
:100EF200382F00300A128A110C270A128A11382F51
:100F020001300A128A110C270A128A11382F023074
:100F12000A128A110C270A128A11382F03300A1278
:100F22008A110C270A128A11382F04300A128A11E8
:100F32000C270A128A11382F05300A128A110C273F
:100F42000A128A11382F06300A128A110C270A1245
:100F52008A11382F07300A128A110C270A128A11B5
:100F6200382F08300A128A110C270A128A11382FD8
:100F720009300A128A110C270A128A11382FF50138
:100F8200F601382F382F7608003A0319CC2FFF3A92
:100F92000319EF2F382F7508003A03197A2F013AF7
:100FA2000319812F033A0319882F013A03198F2F4E
:100FB200073A0319962F013A03199D2F033A031991
:100FC200A42F013A0319AB2F0F3A0319B22F013A9A
:100FD2000319B92F033A0319C02F382F7508FF3AA6
:100FE2000319752F382F382F382F0A128A1100282B
:0E0FF200F501F601F70183010A128A112A2F78
:04400E00D4E0FFFFFC
:00000001FF
